S01700004763634170706C69636174696F6E312E737265635B
S113000050C097C069C068C067C066C065C064C09E
S113001063C062C061C060C05FC05EC05DC00501F6
S11300200906A101050719E029E715002501750155
S113003095088102950175082565190029658100D7
S1130040C009022200010100801909040000010313
S1130050000000092101010001222300070581039A
S113006008000A1201100100000008424231E100B8
S11300700101020001160345006100730079004C80
S1130080006F00670067006500720012036F006272
S1130090006400650076002E00610074000403090A
S11300A0040011241FBECFE5D1E0DEBFCDBF10E0B8
S11300B0A0E6B0E0E8E5F9E002C005900D92A236B2
S11300C0B107D9F720E0A2E6B0E001C01D92A33B3E
S11300D0B207E1F7E8D13EC493CFA82FB92F80E04F
S11300E090E041E050EA609530E009C02D9182270C
S11300F09795879510F084279527305EC8F36F5F36
S1130100A8F30895EADF8D939D930895A6E08827C8
S11301109927AA9569F00197E1F3B099FCCFB09BB8
S1130120FECF81E09927A6B3019611F0A570D9F707
S11301300895CF93CFB7CF93C395B09BE9F7B09B06
S113014009C0B09B07C0B09B05C0B09B03C0B09B67
S113015001C0A3C0DF93C0919600DD27C356DF4FD3
S1130160B09B02C0DF91EBCF2F930F931F9306B385
S11301702FEF00FB20F94F933F9316B34FEF012766
S113018000FB21F93BE031C04E7F012F16B3216003
S113019028C0102F4D7F2260000006B329C04B7F7A
S11301A02460012F000016B32BC016B3477F2860CC
S11301B02AC04F7E06B320612CC04F7D16B3206247
S11301C02FC04F7B06B3206432C0422706B3499345
S11301D04FEF0000102710FB20F916B31570C9F17A
S11301E0297F91F2012700FB21F906B3237F89F2CD
S11301F0315058F1102710FB22F916B3277E79F2FB
S1130200012700FB23F92F7C81F206B3102710FB92
S113021024F92F7971F200C016B3012700FB25F9E8
S11302202F7359F200C006B3102710FB26F92230B1
S113023040F200C016B3012700FB27F9243028F64A
S11302404F77206816B30000F9CF10E41ABF0027D7
S113025019C03B503195C31BD04010E41ABF08812C
S1130260033CF9F00B34E9F0209194001981110F4B
S11302701213EDCF4A81441F093641F10D3211F0BA
S1130280013E29F700939B003F914F911F910F91DD
S11302902F91DF91CAB7C6FD4FCFCF91CFBFCF917A
S11302A0189520919B00222379F310919900112332
S11302B069F534306AF130939900209395001091D8
S11302C096003BE0311B3093960022C000919900C8
S11302D00130E4F40AE54F7049F43091610034FDD3
S11302E019C000936100CDE7D0E018C030918800B8
S11302F034FD10C000938800C9E8D0E00FC02795F2
S1130300A8F45150A9F4220F0000F9CF4AE503C024
S113031042ED01C0432FC4E1D0E032E017B31560D1
S1130320C09A17BB08B320E415E05F93012756E099
S113033008BB279520F4515021F4220FF9CF01274F
S113034056E000003B5A08BBD0F2279528F45150E0
S113035029F4220F0000F9CF012756E0279508BBA6
S113036020F4515021F4220FF9CF012756E02991AE
S1130370332308BB21F60A7F10919A00110FC6514E
S1130380D04008BB11F01093940010E41ABF016030
S113039017B31A7F402F4A7F5F9100C000C008BB8B
S11303A017BB48BB71CFE0916400F09165003097B2
S11303B011F0808101C080E0E9E7F0E010828183E0
S11303C00895FC0189E790E090939800809397004A
S11303D0908190769032B9F48181813019F4E3DF11
S11303E082E00895823041F488E790E09093980089
S11303F08093970081E008958A3039F48381809353
S1130400780080E0089580E0089580E00895DF9208
S1130410EF92FF920F931F93CF93DF93F894689416
S1130420EE24E3F8F12CD12C10E8012F0D0D01BFBF
S11304306DDEEC018F3891050CF4D02E169581E019
S1130440E81AF10891F78FEF8D0D81BF81B70D2D5B
S113045010E00F5F1F4F90E008171907B4F056DE45
S11304608F5891099C0122F422273327281B390B2A
S11304702C173D0714F4D1B6E90191B79F5F91BFE2
S113048021B730E00217130754F7D1BE789461B74F
S113049080E090E051D2DF91CF911F910F91FF90B6
S11304A0EF90DF90089580E090E03ED28F3F09F016
S11304B081BFB89A84E1E5EAFEE03197F1F700C024
S11304C000008150C1F7B898BC9AC19A9EE088E1B7
S11304D00FB6F894A89581BD0FBE91BD8BE080BF87
S11304E083E987B987E886B9FED1789408E810E0F3
S11304F06894882482F8772473940F2EF6E6EF2EFE
S1130500F0E0FF2EF02D55245A940F2EF8E26F2EB2
S1130510F02D0F2EF2E7AF2EF0E0BF2EF02D0F2EB0
S1130520F1E7CF2EF0E0DF2EF02D0F2EFAE02F2E84
S1130530312CF02D0F2EF7E29F2EF02DA8959FD091
S1130540F801808184FF1CC0809164009091650053
S1130550892BB1F028DF62E089E790E06ED0E0916A
S11305606400F0916500CF0101969093650080933B
S1130570640081818F3F21F4109265001092640021
S113058008B602FE28C088BE86B3827090916200CD
S1130590891781F08093620081110CC0872D90919E
S11305A07600911180E080937600882311F0C49A3C
S11305B001C0C498809163008F5F8F3318F48093D7
S11305C0630009C01092630080917600882319F0BB
S11305D070927700369A80917700882309F4AECF21
S11305E03699ACCF1092770024B135B1A901440FEC
S11305F0551F36952795420F531FF70157861686C8
S11306006586E501F601CA01B1017AD1462F572F5B
S11306101882811104C06E2F9F2F908204C06E2F08
S11306209F2F835E8083229732974115510559F796
S1130630609364009093650081CFCF93C62F20917F
S1130640880024FF07C0E8E8F0E0318128E8232788
S1130650218303C02AE520938800E82FF92FAAE814
S1130660B0E08C2F91919D938150E1F76C2F8AE833
S113067090E048DDCC5FC0938800CF910895CF937C
S1130680DF938091990083500AF4B4C020919600BE
S1130690909195009D3209F0ABC0883009F0A8C054
S11306A0CCE0D0E0C21BD109C356DF4F83EC80936A
S11306B07D008AE58093610010927C0088818076B9
S11306C019F0CE017EDE8BC09A811092860089815A
S11306D0811106C01092870026E830E082E07BC0DA
S11306E0853031F490939A0026E830E080E073C0BE
S11306F0863009F050C08B81813041F483E690E06C
S1130700909398008093970082E141C0823041F435
S113071081E490E0909398008093970082E237C040
S11307208330F1F4911108C08DE990E09093980022
S11307308093970084E02BC0913041F48BE890E0E3
S1130740909398008093970082E121C09230E1F465
S113075085E790E0909398008093970086E117C016
S1130760813241F483E590E0909398008093970060
S113077089E00DC0823251F48EE190E090939800AC
S11307808093970083E203C080E001C080E090E49E
S113079090937C0024C0883099F0893031F4909390
S11307A09C0026E830E080E016C08A3069F08B3087
S11307B079F48BE48093890026E830E080E00BC074
S11307C02CE930E081E007C026E830E081E003C096
S11307D026E830E080E030939800209397009F81D2
S11307E0911104C09E81981708F4892F80936000AA
S11307F0109299008091610084FF4BC08091600049
S11308008F3F09F446C0C82F893008F0C8E08C1B1C
S113081080936000EDE7F0E0908188E88927808389
S1130820CC2309F457C0209197003091980080910F
S11308307C0086FF10C0AEE7B0E0F9018C2F9491E4
S11308409D9331968150D9F78FEF8C0F90E00196EC
S1130850280F391F0EC0D901EEE7F0E08C2F9D91CF
S113086091938150E1F78FEF8C0F90E00196280F60
S1130870391F30939800209397006C2F8EE790E0F7
S113088041DCCC5FCC3018F48FEF80936000C093D0
S1130890610086B38570A9F493E186B3857091F401
S11308A09150D9F710929A001092940080917B0095
S11308B0813019F415C0ABDD01C0C1E0C0937B00E9
S11308C00FC094E1C1E09111C0E080917B00C81396
S11308D0F2CF06C06C2F8EE790E014DCCC5FD4CF4F
S11308E0DF91CF91089585B7836085BF8BB780640E
S11308F08BBFE8E8F0E08BE481838AE58083089588
S1130900AA1BBB1B51E107C0AA1FBB1FA617B70731
S113091010F0A61BB70B881F991F5A95A9F780954D
S11309209095BC01CD010895E199FECF1FBA8EBB0D
S1130930E09A99278DB30895262FE199FECF1CBA2A
S11309401FBA8EBB2DBB0FB6F894E29AE19A0FBE84
S10B095001960895F894FFCF0D
S1050958FF5A40
S9030000FC
